:020000040800F2
:10000000001200204D1600082B4100083916000888
:1000100039160008391600083916000800000000DB
:100020000000000000000000000000005117000860
:1000300039160008000000001D170008912800086C
:10004000D1180008D1180008D1180008D1180008EC
:10005000D1180008D1180008D1180008D1180008DC
:10006000D1180008D1180008D1180008D1180008CC
:10007000D1180008D1180008D1180008D1180008BC
:10008000D1180008D1180008D1180008D1180008AC
:10009000D1180008D1180008D1180008D11800089C
:1000A000D1180008D1180008D1180008D11800088C
:1000B000D1180008D1180008D1180008D11800087C
:1000C000D1180008D1180008D1180008D11800086C
:1000D000D1180008D1180008D1180008D11800085C
:1000E000D1180008D1180008D1180008D11800084C
:1000F000D1180008D1180008D1180008D11800083C
:10010000D1180008D1180008D1180008D11800082B
:10011000D1180008D1180008D1180008D11800081B
:10012000D1180008D1180008D1180008D11800080B
:10013000D1180008D1180008D1180008D1180008FB
:10014000D1180008D1180008D1180008D1180008EB
:10015000D1180008D1180008D1180008D1180008DB
:10016000D1180008D1180008D1180008D1180008CB
:10017000D1180008D1180008D1180008D1180008BB
:10018000D1180008D1180008D1180008D1180008AB
:10019000D1180008D1180008D1180008D11800089B
:0C01A000D1180008D1180008D118000880
:0401AC00FFFFFFFF53
:1001B00081F0004102E000BF83F0004330B54FEA18
:1001C00041044FEA430594EA050F08BF90EA020F85
:1001D0001FBF54EA000C55EA020C7FEA645C7FEA18
:1001E000655C00F0E2804FEA5454D4EB5555B8BF3B
:1001F0006D420CDD2C4480EA020281EA030382EAAC
:10020000000083EA010180EA020281EA0303362D3D
:1002100088BF30BD11F0004F4FEA01314FF4801C10
:100220004CEA113102D0404261EB410113F0004F22
:100230004FEA03334CEA133302D0524263EB4303D9
:1002400094EA050F00F0A780A4F10104D5F1200E77
:100250000DDB02FA0EFC22FA05F2801841F10001D2
:1002600003FA0EF2801843FA05F359410EE0A5F1A6
:1002700020050EF1200E012A03FA0EFC28BF4CF0D7
:10028000020C43FA05F3C01851EBE37101F000458D
:1002900007D54FF0000EDCF1000C7EEB00006EEB9A
:1002A0000101B1F5801F1BD3B1F5001F0CD3490824
:1002B0005FEA30004FEA3C0C04F101044FEA44527B
:1002C00012F5800F80F09A80BCF1004F08BF5FEA02
:1002D000500C50F1000041EB045141EA050130BDE2
:1002E0005FEA4C0C404141EB0101013C28BFB1F5F4
:1002F000801FE9D291F0000F04BF01460020B1FA3F
:1003000081F308BF2033A3F10B03B3F120020CDA11
:100310000C3208DD02F1140CC2F10C0201FA0CF0EF
:1003200021FA02F10CE002F11402D8BFC2F1200C54
:1003300001FA02F120FA0CFCDCBF41EA0C0190400A
:10034000E41AA2BF01EB0451294330BD6FEA040453
:100350001F3C1CDA0C340EDC04F11404C4F120023E
:1003600020FA04F001FA02F340EA030021FA04F350
:1003700045EA030130BDC4F10C04C4F1200220FAA7
:1003800002F001FA04F340EA0300294630BD21FAE5
:1003900004F0294630BD94F0000F83F4801306BFAB
:1003A00081F480110134013D4EE77FEA645C18BF9F
:1003B0007FEA655C29D094EA050F08BF90EA020F36
:1003C00005D054EA000C04BF1946104630BD91EA2E
:1003D000030F1EBF0021002030BD5FEA545C05D131
:1003E0004000494128BF41F0004130BD14F5800470
:1003F0003CBF01F5801130BD01F0004545F0FE41E4
:1004000041F470014FF0000030BD7FEA645C1ABF18
:10041000194610467FEA655C1CBF0B46024650EA4F
:10042000013406BF52EA033591EA030F41F400217B
:1004300030BD00BF90F0000F04BF0021704730B501
:100440004FF4806404F132044FF000054FF00001D6
:1004500050E700BF90F0000F04BF0021704730B597
:100460004FF4806404F1320410F0004548BF40426C
:100470004FF000013EE700BF42004FEAE2014FEAC1
:1004800031014FEA02701FBF12F07F4393F07F4F9C
:1004900081F06051704732F07F4208BF704793F09F
:1004A0007F4F04BF41F40021704730B54FF46074B2
:1004B00001F0004521F000411CE700BF50EA0102B5
:1004C00008BF704730B54FF000050AE050EA01025E
:1004D00008BF704730B511F0004502D5404261EBCE
:1004E00041014FF4806404F132045FEA915C3FF40F
:1004F000D8AE4FF003025FEADC0C18BF03325FEAAC
:10050000DC0C18BF033202EBDC02C2F1200300FA5C
:1005100003FC20FA02F001FA03FE40EA0E0021FA81
:1005200002F11444BDE600BF70B54FF0FF0C4CF46F
:10053000E06C1CEA11541DBF1CEA135594EA0C0F21
:1005400095EA0C0F00F0DEF82C4481EA030621EA5C
:100550004C5123EA4C5350EA013518BF52EA033597
:1005600041F4801143F4801338D0A0FB02CE4FF049
:100570000005E1FB02E506F00042E0FB03E54FF079
:100580000006E1FB03569CF0000F18BF4EF0010E71
:10059000A4F1FF04B6F5007F64F5407404D25FEA6D
:1005A0004E0E6D4146EB060642EAC62141EA555120
:1005B0004FEAC52040EA5E504FEACE2EB4F1FD0C62
:1005C00088BFBCF5E06F1ED8BEF1004F08BF5FEAE0
:1005D000500E50F1000041EB045170BD06F0004692
:1005E00046EA010140EA020081EA0301B4EB5C043F
:1005F000C2BFD4EB0C0541EA045170BD41F4801137
:100600004FF0000E013C00F3AB8014F1360FDEBF5B
:10061000002001F0004170BDC4F10004203C35DA37
:100620000C341BDC04F11404C4F1200500FA05F3BA
:1006300020FA04F001FA05F240EA020001F000425B
:1006400021F0004110EBD37021FA04F642EB0601D1
:100650005EEA430E08BF20EAD37070BDC4F10C04FB
:10066000C4F1200500FA04F320FA05F001FA04F2BF
:1006700040EA020001F0004110EBD37041F10001AB
:100680005EEA430E08BF20EAD37070BDC4F12005B6
:1006900000FA05F24EEA020E20FA04F301FA05F21E
:1006A00043EA020321FA04F001F0004121FA04F2C6
:1006B00020EA020000EBD3705EEA430E08BF20EA96
:1006C000D37070BD94F0000F0FD101F000464000D0
:1006D00041EB010111F4801F08BF013CF7D041EA52
:1006E000060195F0000F18BF704703F00046520056
:1006F00043EB030313F4801F08BF013DF7D043EA27
:100700000603704794EA0C0F0CEA135518BF95EADC
:100710000C0F0CD050EA410618BF52EA4306D1D163
:1007200081EA030101F000414FF0000070BD50EA82
:10073000410606BF1046194652EA430619D094EA0C
:100740000C0F02D150EA013613D195EA0C0F05D1F6
:1007500052EA03361CBF104619460AD181EA03014A
:1007600001F0004141F0FE4141F470014FF0000002
:1007700070BD41F0FE4141F4780170BD70B54FF09D
:10078000FF0C4CF4E06C1CEA11541DBF1CEA13551D
:1007900094EA0C0F95EA0C0F00F0A7F8A4EB0504FF
:1007A00081EA030E52EA03354FEA013100F08880F6
:1007B0004FEA03334FF0805545EA131343EA1263BF
:1007C0004FEA022245EA111545EA10654FEA002674
:1007D0000EF000419D4208BF964244F1FD0404F52D
:1007E000407402D25B084FEA3202B61A65EB030589
:1007F0005B084FEA32024FF480104FF4002CB6EB46
:10080000020E75EB030E22BFB61A754640EA0C00C5
:100810005B084FEA3202B6EB020E75EB030E22BF05
:10082000B61A754640EA5C005B084FEA3202B6EB46
:10083000020E75EB030E22BFB61A754640EA9C0005
:100840005B084FEA3202B6EB020E75EB030E22BFD5
:10085000B61A754640EADC0055EA060E18D04FEA93
:10086000051545EA16754FEA06164FEAC30343EA33
:1008700052734FEAC2025FEA1C1CC0D111F4801F00
:100880000BD141EA00014FF000004FF0004CB6E7F9
:1008900011F4801F04BF01430020B4F1FD0C88BF98
:1008A000BCF5E06F3FF6AFAEB5EB030C04BFB6EBA3
:1008B000020C5FEA500C50F1000041EB045170BD96
:1008C0000EF0004E4EEA113114EB5C04C2BFD4EBC3
:1008D0000C0541EA045170BD41F480114FF0000E47
:1008E000013C90E645EA060E8DE60CEA135594EAC3
:1008F0000C0F08BF95EA0C0F3FF43BAF94EA0C0FC6
:100900000AD150EA01347FF434AF95EA0C0F7FF43A
:1009100025AF104619462CE795EA0C0F06D152EA8E
:1009200003353FF4FDAE1046194622E750EA410672
:1009300018BF52EA43067FF4C5AE50EA41047FF483
:100940000DAF52EA43057FF4EBAE12E77BB972B903
:100950000029BEBF00204FF0004106E008BF00287C
:100960001CBF6FF000414FF0FF3000F075B8ADF1E3
:10097000080C6DE904CE002909DB002B1ADB00F01E
:100980002CF9DDF804E0DDE9022304B070474042B1
:1009900061EB4101002B1BDB00F01FF9DDF804E0E7
:1009A000DDE9022304B0404261EB4101524263EBB6
:1009B00043037047524263EB430300F00EF9DDF846
:1009C00004E0DDE9022304B0404261EB41017047DD
:1009D000524263EB430300F000F9DDF804E0DDE987
:1009E000022304B0524263EB4303704753B94AB940
:1009F000002908BF00281CBF4FF0FF314FF0FF3027
:100A000000F02AB8ADF1080C6DE904CE00F0E5F86D
:100A1000DDF804E0DDE9022304B07047D0B50C4BEB
:100A2000002206460F46FFF77FFD00F09FF80446C0
:100A3000FFF700FD074B0022FFF776FD02460B464D
:100A400030463946FFF7B8FB00F090F82146D0BD9C
:100A50000000F03D0000F041704700BF4FF0FF3C48
:100A600006E000BF4FF0010C02E000BF4FF0010CA8
:100A70004DF804CD4FEA410C7FEA6C5C4FEA430C21
:100A800018BF7FEA6C5C1BD001B050EA410C0CBF70
:100A900052EA430C91EA030F02BF90EA020F0020D2
:100AA000704710F1000F91EA030F58BF994208BF39
:100AB00090422CBFD8176FEAE37040F001007047F6
:100AC0004FEA410C7FEA6C5C02D150EA013C07D14D
:100AD0004FEA430C7FEA6C5CD6D152EA033CD3D098
:100AE0005DF8040B704700BF8446104662468C4692
:100AF0001946634600E000BF01B5FFF7B7FF0028C5
:100B000048BF10F1000F01BD4DF808EDFFF7F4FFED
:100B10000CBF012000205DF808FB00BF4DF808ED78
:100B2000FFF7EAFF34BF012000205DF808FB00BF9B
:100B30004DF808EDFFF7E0FF94BF012000205DF8BD
:100B400008FB00BF4DF808EDFFF7CEFF94BF012072
:100B500000205DF808FB00BF4DF808EDFFF7C4FF6B
:100B600034BF012000205DF808FB00BF4A0011D20D
:100B700012F5001211D20DD56FF47873B3EB6252F7
:100B80000ED44FEAC12343F0004343EA505323FA03
:100B900002F070474FF00000704750EA013002D178
:100BA0004FF0FF3070474FF00000704738B500221B
:100BB000002304460D46FFF7B1FF28B92046294619
:100BC000BDE83840FFF72ABF204605F10041FFF796
:100BD00025FF404261EB410138BD2DE9F0478646D3
:100BE0008C460846089E154674461946002B40F070
:100BF000C2808542B2FA82F245D94AB1C2F12003DD
:100C000000FA02FC2EFA03F3954043EA0C0C9440E0
:100C10004FEA154EA8B2BCFBFEF8230C0EFB18CC15
:100C200008FB00F943EA0C43994528D9EB1808F171
:100C3000FF3704D2994502D9A8F102072B44A3EB50
:100C40000903A4B2B3FBFEFC0EFB1C330CFB00F04B
:100C500044EA0344A04214D92C190CF1FF3304D206
:100C6000A04202D9ACF102032C44241A43EA074003
:100C70001EB1D440002334607360BDE8F08747465E
:100C8000DDE76346F1E792BB431B01214FEA154EB6
:100C9000AFB2B3FBFEFC200C0EFB1C330CFB07F8C1
:100CA00040EA0343984562D9EB180CF1FF3004D2B7
:100CB000984502D9ACF102002B44A3EB0803A4B27F
:100CC000B3FBFEFC0EFB1C330CFB07F744EA0344AA
:100CD000A7424ED92C190CF1FF3304D2A74202D9F6
:100CE000ACF102032C44E41B43EA0040C0E7C2F12C
:100CF000200320FA03F1954090402EFA03F30343BA
:100D00004FEA154EAFB2B1FBFEFC0EFB1C10190CE6
:100D10000CFB07F841EA0041884504FA02F422D9A5
:100D200069180CF1FF3004D2884502D9ACF10200F9
:100D30002944A1EB08019BB2B1FBFEFC0EFB1C1188
:100D40000CFB07F743EA01439F420ED9EB180CF165
:100D5000FF3104D29F4202D9ACF102012B44DB1BCC
:100D600041EA004192E76046E3E76146F7E7604603
:100D7000A3E76346B7E7834206D916B900210846C0
:100D80007BE7C6E900E0F9E7B3FA83F78FB983425E
:100D900001D3724508D8BEEB020460EB03030120C7
:100DA0009C461EB9002168E73846FAE7C6E9004CC0
:100DB000F8E7C7F1200CBB4022FA0CF41C432EFAD2
:100DC0000CF120FA0CF3B84001434FEA14490EFA33
:100DD00007F5B3FBF9F81FFA84FE09FB18300B0C7A
:100DE00008FB0EFA43EA00439A4502FA07F240D99B
:100DF000E31808F1FF3004D29A4502D9A8F10200A5
:100E00002344A3EB0A0389B2B3FBF9F809FB1833B7
:100E100008FB0EFE41EA03418E452CD9611808F10A
:100E2000FF3304D28E4502D9A8F10203214443EADC
:100E30000040A0FB0298A1EB0E014145CE4643467F
:100E400002D306D14D4504D2B9EB020E68EB040380
:100E50000138002EA6D0B5EB0E0261EB030101FABA
:100E60000CFC22FA07F34CEA0303F940C6E900310F
:100E700098E74046C5E74346D9E710F8012B11F83B
:100E8000013B012A28BF9A42F7D0D01A70470000D0
:100E90002DE9F04F91B0584801F074FE0446002847
:100EA00000F09D8052A7D7E90067544DA3683C210C
:100EB000DB6820469847A36804AA1B6903212046E3
:100EC0009847A3680AAA1B690721204698470598F6
:100ED000FFF7C0FA32463B46FFF750FC80460498C5
:100EE0008946FFF7B7FA02460B4640464946FFF7E8
:100EF00065F9824609988B46FFF7ACFA32463B46C5
:100F0000FFF73CFC804608988946FFF7A3FA0246A3
:100F10000B4640464946FFF751F9CDE902010798D3
:100F2000FFF798FA32463B46FFF728FC80460698C2
:100F30008946FFF78FFA02460B4640464946FFF7BF
:100F40003DF95246CDE900015B46284602F0A1FF7B
:100F50000B98FFF77FFA32463B46FFF70FFC8046BF
:100F60000A988946FFF776FA02460B4640464946FC
:100F7000FFF724F982460F988B46FFF76BFA32464B
:100F80003B46FFF7FBFB80460E988946FFF762FA67
:100F900002460B4640464946FFF710F9CDE90201EB
:100FA0000D98FFF757FA32463B46FFF7E7FB8046BE
:100FB0000C988946FFF74EFA02460B4640464946D2
:100FC000FFF7FCF85246CDE900015B460C4802F001
:100FD00060FF002142F2107002F012FA66E7094841
:100FE00002F057FF4FF0FF3011B0BDE8F08F00BFA7
:100FF0000000000080842E4180590008A759000895
:10100000C0590008885900080B4610B5C917044696
:10101000A3FB020302FB0131FFF758FA06A3D3E951
:101020000023FFF781FAFFF7C1FD054A0023FFF710
:101030008DFCC4E9000210BD05A3923A019D234036
:1010400040420F00000000000B4610B5C9170446CF
:10105000A3FB020302FB0131FFF738FA06A3D3E931
:101060000023FFF761FAFFF7A1FD054A0023FFF710
:101070006DFCC4E9000210BD6811F16346DF913FC9
:1010800040420F00000000000329F7B50546144652
:1010900004D007296DD06FF085004FE052B3072AC6
:1010A000F9D158681A68664BC117C2FB03010128C1
:1010B00071F100035ADB634B2E696D68C01841F172
:1010C00000015BA3D3E90023FFF740FC02380E28A0
:1010D0004CD85D4B1C56002CC0F2A780E1B22846CC
:1010E00002F0C6FF002829DB584B33F81430B360F8
:1010F000002023E0066940681F680DF1070102F037
:101100003BFF00281ADB9DF8071011F00701BBB266
:101110001CD04F4A32F8021B8B4211D8738BA3426A
:10112000E6D0E4B22146284603F08FFC002805DB18
:101130002146284603F06BFC00EAE07003B0F0BDE6
:101140000134072CE6D16FF01504EAE7414A32F882
:10115000020B834207D8338B9942C9D0C9B22846C3
:1011600003F073FCE8E701310729F0D16FF01500B7
:10117000E4E7002A3FD0072A8DD15A681C6830481E
:10118000D11713460A46C4FB0032B424A3FB040162
:10119000012B04FB021172F1000220DB2E4BC01860
:1011A00025A3D3E9002341F10001FFF7CFFBB0F500
:1011B000FA7F1CD0B0F5FA6F1BD0F528D6D10024E9
:1011C00068682E69214602F07EFE0028B6DB234BBC
:1011D00033F8143042F22E225343736188E7204BD8
:1011E000C01861F1000114A3D3E90023DDE7012455
:1011F000E6E70324E4E71A880169154B33F8020B8C
:1012000082420CD84B8BA3423FF472AFE4B221462A
:10121000284603F0FCFB002890DB21469FE70134C1
:10122000072CEBD16FF01504F0E7204686E700BFEE
:101230003AA3950000000000D8EF2F000000000046
:1012400040420F009DD14A00BC5A0008785900085E
:101250005459000862590008ECF71700705900084B
:101260001408E8FF014B1B68184700BF000000206E
:1012700030B585B004460D4610220021684603F0C3
:1012800064FF02238DF802302A46044B0193214665
:10129000684602F0BFFA05B030BD00BF6512000815
:1012A000014B1860704700BF0000002080B5054664
:1012B0000E461746984602F0C1F8034603F04EFF6B
:1012C000DFF81890044649F8003042463046394667
:1012D000A84754F8090000F0CFF900BF080000004B
:1012E000034A536823F0020353600020704700BF95
:1012F000002004E0084B1A6842F400721A601A6871
:1013000042F480621A601A6842F480721A60034BD9
:10131000034A1A6000207047002002407C00002031
:1013200000093D00014B036000207047545600083F
:1013300030BFFFF7FDBF00BF2DE9F0410B4EDFF8D6
:10134000308006EB0807CC1B05463246094920468B
:1013500003F0EDFEA01942460021083C03F0F5FE23
:101360002C6707F10800BDE8F08100BF0000000015
:10137000040000004C560008074A936893F90E10C9
:10138000002907DB526993421FBF044A536843F0A8
:1013900080535360704700BF0804002000ED00E058
:1013A00070B5264B15469A6A12F0100F9A6A14BF50
:1013B0001124102412F0080F9A6A18BF1224920701
:1013C00006460AD5586B9A6A140634D519B19A6A3A
:1013D00022F080029A62132401E06FF01500174B8F
:1013E0009A6A12F0010F9A6A18BF142412F0200FA3
:1013F0009A6A18BF1524D20602D49B6A9B070AD5A5
:101400000E4B5B68190506D5314600F017FA10B18E
:1014100080F309880224094B9A6A920642BF5A6AED
:1014200022F400525A629A6A42F0FF029A62002342
:101430002B70204670BD6FF01500CCE700ED00E08A
:10144000134B9A6A12F0007F9A6A14BF1E201D2067
:1014500012F0807F9A6A18BF1F2012F4002F9A6A38
:1014600018BF212012F4802F9A6A18BF222012F48C
:10147000003F9A6A18BF232012F4803F9A6A6FEAED
:1014800002426FEA12429A6218BF2420704700BFDE
:1014900000ED00E010B5194B0246986A9C6A10F402
:1014A000805F14BF1720162014F4006F9C6A18BFC9
:1014B0001820A40509D5986B986A000404D51AB1C0
:1014C0009A6A22F400429A6219200C4B9A6A12F42A
:1014D000806F9A6A18BF1A20D2050CD49B6A13F445
:1014E000005F18BF1C20054A936A43F47F43936250
:1014F00000230B7010BD1B20F5E700BF00ED00E0DE
:10150000F0B5484B5B688BB00446C3F30803002575
:1015100085F31188BFF36F8F02F07F40B0F17F4FEA
:1015200011D102F00C0008280DD010074CBF0C465A
:1015300001250022033B8DF80720032B05D8DFE8A7
:1015400003F0246367602C46F3E700239DF807202F
:10155000CAB902AE04F1200720686168324603C2AE
:101560000834BC421646F7D1099A002D54D0C2F374
:10157000080121B96FEA52226FEA4222099202A9B8
:10158000184602F0C8FD0BB0F0BD264BDA6A910791
:10159000DBD4DA6A002AD8DBDA6A5200D5D55A6978
:1015A000A16942F480725A61BFF34F8FBFF36F8F0E
:1015B0005A6931F8021C22F480725A61BFF34F8FCE
:1015C000BFF36F8F4DF6027291420AD09A6AD2B27F
:1015D0004AB10DF1070201212046FFF7E1FE034663
:1015E000B4E72368B2E79A6A12F47F4F05D00DF191
:1015F00007010120FFF74EFFF1E79B6AB3F5803F3B
:10160000A3D3FFF71DFFEAE70DF107020021E3E78F
:101610000DF107010020EDE722F4FF7222F0010234
:10162000ACE700BF00ED00E0024A536943F010034D
:101630005361704700ED00E0EFF30880EFF309819C
:1016400001B57246FFF75CFF01BD00BF102080F3BB
:10165000118808484FF40461401880F30988EFF3BB
:1016600014800221084380F31488BFF36F8F00F0C9
:10167000A5F8000040040020084B9B6883420BD172
:10168000EFF3058343B1064B5A6842F080525A602B
:101690005A6A22F400425A6203F0ABBC08040020EC
:1016A00000ED00E0094A93686FF00A019967084964
:1016B00058674B6843F080534B60002383F31188D5
:1016C000BFF36F8F9368986F704700BF08040020C6
:1016D00000ED00E010B50446EFF31183102383F30F
:1016E0001288BFF36F8F0A4B58699860094B4FF00F
:1016F00000625A60084B026F1A600022436F426713
:1017000083F31188BFF36F8F00F000F9204610BDFE
:101710000804002000ED00E0700200200B498A68F8
:101720004FF030001044EFF3098C80E8F01F74464E
:101730007046FFF7CFFFA64604498A6802F13000E1
:1017400090E8F01F8CF3098870470000080400201F
:101750001EF0040F0CBFEFF30880EFF309808169DE
:1017600011F8021C0229FFD001B502F0DAFC01BD1C
:1017700040B2002807DB044A4109012300F01F00A2
:10178000834042F82130704700E100E040B2002879
:10179000A8BF00F1604001F10101B8BF064B4FEA5C
:1017A0000111ACBF00F5614000F00F00C9B2B4BF39
:1017B000195480F80013704714ED00E00F4A08B583
:1017C0000F4B22F07F029A60BFF34F8FBFF36F8FF2
:1017D000D3F8882022F47002C3F88820EFF3148332
:1017E00023F0040383F31488BFF36F8F01F082FAB0
:1017F00001F0B0FE00F060F801F0C0FA000000084F
:1018000000ED00E042F8203C009B42F81C3C0A49F5
:10181000019B42F8183C029B42F8143C21F0010164
:101820004FF0807342F8043C42F8081C0023203A31
:1018300002654367704700BFAD120008094A0346BE
:10184000906870B113F1160F006E05D0A0F1400240
:101850009A4205D8834203D2814228BF00207047B4
:10186000002070470804002008B515460B4A0C4BB1
:101870009060026F1A600E4600F048F82C4686F31E
:1018800009884FF00000074B984720464FF00001B1
:101890004FF000024FF00003034C204708040020E3
:1018A0007002002041410008AD120008014B1022D7
:1018B0001A61704700ED00E0044800231021C218AF
:1018C00001335B2B82F80013F9D1704700E100E08F
:1018D00008B5EFF30583064A103B02EBC30152F84B
:1018E000330049688847BDE80840FFF745BD00BFA1
:1018F00074530008024B034A0348012100F076B8F4
:10190000000005200000002054560008026E054B20
:10191000403A1A60044A4021C3E9011218460121E5
:1019200000F06EB87402002000000B15084AC2F8DF
:1019300098000B6823F01F03034343F01003C2F821
:101940009C308B6843F00103C2F8A030704700BFA1
:1019500000ED00E02DE9F043DFF8608085B00E4631
:101960001F4604464FF00009B14523DA6068D8B13C
:101970003FB1411E08421BD11F2819D923681942C3
:1019800016D12368019302F0EFFBA368034303938E
:10199000D8F89050C5F30725D0B2013DA84207D82A
:1019A00001A9FFF7C3FF421C09F101090C34DBE771
:1019B0006FF01502104605B0BDE8F08300ED00E0C1
:1019C000044B0522C3F89420BFF34F8FBFF36F8FF2
:1019D000704700BF00ED00E0BFF35F8F024B0022B5
:1019E000C3F89420704700BF00ED00E010B5034C31
:1019F00001232278FFF7AEFF207010BD38040020CD
:101A000008B50B4A00231278FFF7A4FF10F1160F58
:101A100007D0084A0021D2F89030C3F30723984238
:101A200000DB08BDC2F89800C2F8A0100130F2E750
:101A30003804002000ED00E02DE9FF41524B534CEB
:101A4000D3F890302568C3F307239D4200F29980B4
:101A5000FFF7C2FF00200C26854218D14C4C4D4F99
:101A600025706846FFF75EFCDFF81C8106460025FE
:101A7000AE4213D1237844490020D1F89020C2F31C
:101A80000722934277DBFFF79BFF00201CE0616891
:101A900006FB0011FFF74AFF0130DDE7009800EB7D
:101AA00005114FEA051CCB683B40B3F5000F50D041
:101AB0000DD8B3F5001F36D0B3F5800F3ED0B3F587
:101AC000801F13D06FF0150004B0BDE8F081B3F1B2
:101AD000807F47D0B3F1007FF4D150F80C30886894
:101AE0004A6802F041FB40F4802009E050F80C30D5
:101AF00088684A6802F038FB40F0885040F4302093
:101B0000CDE901230390D8F890302078C3F3072360
:101B1000013B9842D6D801A9FFF708FF237801338B
:101B200023700135A4E750F80C3088684A6802F049
:101B30001BFB40F0885040F40020E1E750F80C30E7
:101B400088684A6802F010FB40F0E06040F4003022
:101B5000D6E750F80C3088684A6802F005FB40F080
:101B60008270CDE750F80C3088684A6802F0FCFAC1
:101B700040F08870C4E7C1F89830C1F8A000013384
:101B80007BE74FF0FF309FE700ED00E06056000874
:101B9000380400200000F0FF08B5024B1B6898478E
:101BA000002008BD80020020034B044A186093788F
:101BB00043F002039370704780020020040000206D
:101BC00008B50649064821F00701C1F1005202F5A7
:101BD000A02202F004F9002008BD00BF4712002037
:101BE000840200202DE9F0410F4E104F05460024DD
:101BF0004FF001082B7853FA84F01F280DDC72692E
:101C000008FA00F333EA020207D1736157F8303063
:101C10001BB107EBC002516898476A780134E3B200
:101C20009A42E7D2BDE8F081000401409002002012
:101C3000044B184400230133994200F8012BFADCCD
:101C4000704700BF8800002010B4064B06490246CA
:101C50000C6818560123934023430B6010BCFFF718
:101C600087BD00BF88000020000401401F2806DC5B
:101C7000034901220B68824023EA02030B6070478C
:101C80000004014003292AD8DFE801F0020E141FE6
:101C9000134B01229968824021EA02019960D968B8
:101CA00021EA0202DA6070470D4B012299688240F6
:101CB0001143F3E70A4B0122D96882401143D960EE
:101CC000996821EA02029A607047012303FA00F042
:101CD000034B9A6802439A60DA681043D8607047F1
:101CE0000004014030B50A4B53F830408C4204D117
:101CF00003EBC0056D68954205D034B943F8301048
:101D000003EBC0035A60002030BD6FF00F00FBE70B
:101D100090020020034B002243F8302003EBC00365
:101D20005A60704790020020024B1868C0F3802070
:101D3000704700BF0010024010B5204B18680B68B8
:101D4000072B144615D00A2B0AD893B1013B092B57
:101D50000FD8DFE803F016152D300E150E192127C8
:101D6000582B0ED008D84C2B0BD0502B09D0482B19
:101D700007D06FF0850006E05C2B02D0602BF7E700
:101D800000202060002010BD00F0B2F8142358435A
:101D90000723B0FBF3F0F4E700F0AAF8142358434C
:101DA0004008EEE700F0A4F8142358438008E8E761
:101DB0004FF4FA40E5E70248E3E700BF7C0000206B
:101DC0000024F400F8B5464F464C00F0A7F838461A
:101DD00002F09FFA00F034FEA368434AC3F30313F2
:101DE0001578D35C47FA05F520FA03F6AE4202D225
:101DF000284600F073FEFFF797FF012807D02368FD
:101E000043F480732360FFF78FFF0128FBD1D4F8E0
:101E1000943043F00103C4F89430D4F894309A0716
:101E2000FBD5A36803F00C030C2B1AD1FFF77CFF42
:101E3000012807D0236843F480732360FFF774FF01
:101E40000128FBD1A36823F0030343F00103A3603F
:101E5000A36803F00C03042BFAD1A36823F0F0036A
:101E6000A360236823F080732360E36823F060534A
:101E700023F4003343F06053E360E36843F48033BA
:101E8000E360E36823F4C003E360E36843F4801392
:101E9000E36000F031F8236843F080732360236827
:101EA0009B01FCD5A36823F0F003A360A36843F073
:101EB0000303A360A36803F00C030C2BFAD1AE421A
:101EC00002D3284600F00AFE084B1F60A36823F4E3
:101ED000E063A360A36823F46053A3600020F8BD0F
:101EE00000B4C40400100240FB5A00087C0000202B
:101EF000004870470024F400054B0649DA68114099
:101F0000054A0A43DA60DA6842F08072DA607047A4
:101F1000001002408C80FFF902140002064B9A6DFB
:101F200042F080529A659B6D82B003F0805301931A
:101F3000019B02B0704700BF0010024008B507487F
:101F400002F06AFF38B10648FFF72EFE0448FFF79B
:101F5000A7F9002008BD6FF01200FBE7245300082A
:101F6000651F00080A2838B5074D044604D1AB6840
:101F70000D215B6828469847AB6803485B68E1B26F
:101F80009847204638BD00BF2453000838B5036980
:101F9000044658600A4D284602F03EFF68B1094ADF
:101FA000536843F4007353606168AB680C311B687D
:101FB0002846984700EAE07038BD6FF01200FBE752
:101FC0002052000800700040F7B50C461146B1F5EC
:101FD000001F476802691D4624D104F00302043241
:101FE00092000F23934043EA9403DAB23449023259
:101FF00051F82220190C02EA134391FAA1F2B2FA25
:1020000082F2D340BA689A4209D12046FFF72EFEE9
:102010002046FFF77FFE00212046FFF733FE002019
:1020200003B0F0BDB1F5800F41D026492046FFF73F
:1020300059FE00283ED1B5F1806F34D0B5F1C06FA4
:1020400033D0B5F1007F38D102261F4ABD6892E82F
:1020500003006B4683E803001C4882681946126837
:102060009047C0B904F0030304339B000F229A4049
:1020700042EA9402D3B29B0003F1804303F580331C
:10208000110C986820EA124091FAA1F2B2FA82F299
:10209000954005439D6020463146FFF7F3FD2046FD
:1020A000FFF7D2FDBBE70126CFE70326CDE76FF0B0
:1020B0008500B5E76FF00F00B2E76FF01500AFE7EE
:1020C000000001401F4500084C560008205200083F
:1020D00030B504694068C0684568ED0107D54368BC
:1020E0004A6823F47F0343EA0243436030BD246A15
:1020F0001D4D14F0010F44682AD044F4006444607C
:1021000044682C40234343600B7A9C0728D43AB39D
:1021100013785B0724D4436843F0807343604368BB
:10212000039A23F000734360436823F480631343EE
:10213000436043684A6823F47F0343EA02434360F1
:10214000036843F001030360436843F40053CCE7A2
:1021500024F40064446044682C4044EA4303D2E71A
:10216000436823F08073D9E700FCFFFF2DE9F74FA8
:10217000446803690193E568E369DFF80881DFF8E3
:102180000891DFF808A1DFF808B100930020009B58
:102190008342019B1A6A34D1C2F34202012A62D0FF
:1021A000022A6CD140F2145C4FF416774FF4FA76A1
:1021B00040F2771E374B0220421EB1FBF2F2B3FB16
:1021C000F2F2B7FBF2F4013CFF2C55D8BCFBF2F85D
:1021D00008F1FF38B8F1FF0F4ED8BEFBF2F9B9F1A4
:1021E0000F0F49D8B6FBF2F2013A0F2A44D8023851
:1021F00048EA094343EA007343EA025343EA0423EB
:102200001DE00C23D4F818C0DFF88CE003FB00F7C6
:102210000CEB0706736873451DD015D853451CD0C9
:102220005B4514BF002301239B00C2F34202B2EBC3
:10223000530F16D15CF807308B4212D1B3682B6173
:10224000002003B0BDE8F08F434508D04B450CBFDC
:102250000A230023E9E70623E7E70223E5E708234B
:10226000E3E7013093E741F25C2C4FF47A6740F2E8
:10227000E2464FF4FA7E9DE7013011289CD16FF0C1
:102280001500DEE740E13300404B4C00A086010022
:10229000801A060000CA9A3B40420F00F7B5044678
:1022A000436806691948DD680F4659688368DB682A
:1022B0000022019223B96FF00404204603B0F0BD60
:1022C00001AA98470028F6DB376206F110074FF0A5
:1022D000FF324FF0FF33384600F0E0FD2B6823F06B
:1022E00001032B60204696F8421002F0FCFA019997
:1022F000FFF73CFF96F8413004461BB12B6843F0D2
:1023000001032B60384600F0A5FDD6E720520008F7
:102310002DE9F7430446D0F8048005694FF0FF32F9
:102320000021284602F0B5FD0026D8F800302046EE
:10233000984785F8406085F842600122114605F112
:10234000100002F0A6FD274F384602F065FD002878
:1023500045D0D4F8049001AAD9F81400314602F00F
:10236000CDFAB0420DDB019B32461979186800F0B6
:1023700043F8B04205DBBB68D9F804101B68384647
:102380009847D8F81010184B994222D015D8174BFF
:10239000994220D0164BCB1A59425941890041F03D
:1023A00010012046FFF77AFF002803DB012385F8A0
:1023B0004030002003B0BDE8F0830E4B99420CD0B2
:1023C00003F5C31303F5206399420CBF0A210021D2
:1023D000E5E70621E3E70221E1E70821DFE76FF007
:1023E0001200E7E72052000840420F00A0860100DB
:1023F000801A060040E133002DE9F0471E4F0446E5
:1024000000EBC1060025B44201D1002014E0206891
:10241000C30600F01F0911D4656845F02005C0F31C
:10242000471AC0F343200A2823D857F82080B8F170
:10243000000F0DD16FF01200BDE8F087B9F1100F59
:1024400004D0B9F1110FEAD16568E8E73025E6E775
:10245000404602F0E1FC0028ECD04B462A460AF048
:102460000F01404602F072F8002804F10804CADAAD
:10247000E2E76FF01500DFE7B857000873B545686D
:102480000469012301AA2221284601F010FD002839
:102490003DDB9DF8043043F080038DF8043001AA41
:1024A00001232221284601F008FD00282FDB4CF2F1
:1024B000503002F0A2FC012301AA0F21284601F0AE
:1024C000F6FC002823DB9DF80430682B21D1A97E7F
:1024D000284601F00FFD002819DB2E7E28463146E4
:1024E00001F0C6FD002812DB0B4B33F81630A36059
:1024F0006E7E2846314601F0E6FC002807DB074BDC
:1025000033F8163042F22E2253436361002002B0AA
:1025100070BD6FF00400FAE77859000870590008A0
:10252000012912D0022907D089B90068094BC01AC5
:1025300018BF0120000370470068064B984214BF83
:102540004FF440504FF400507047002070474FF454
:102550000050704700800040F7B50269436810687A
:102560001D680C46D9688368DB68CBB101AA98471F
:10257000002815DB114B9D424FEA540012D1002375
:10258000019F19464FF480762246E7FB0601FEF7CD
:102590002DFA0B4BA0F540729A4201D804B1E860C5
:1025A00003B0F0BD2B6823F400432B60019B18445B
:1025B000B0FBF4F189B2E960F2E700BF00800040AF
:1025C000FFFC0F00F7B50569446806464D482860D2
:1025D00002F022FC002800F08D802868E168836802
:1025E0001B6898470028C0F28780206A01AA002152
:1025F00002F084F900287FDB019B0022197918681A
:10260000FFF7FAFE002877DB756833692C685F688E
:10261000236823F001032360686802F0FDFB0028B3
:1026200068D0D5E901018368DB6803B1984754E8B5
:10263000003F43F00C0344E80032002AF7D139464A
:10264000304602F0F6FA2B7D1BB1A36843F0080375
:10265000A3606B7D1BB1636843F400436360AB7D93
:102660001BB1636843F480336360EB7D1BB1636827
:1026700043F4003363602B7E83B3234B9C4213D01F
:10268000A3F574439C420FD003F580639C420BD0AA
:1026900003F580639C4207D003F580639C4203D01E
:1026A00003F540539C4229D173681A68936843F438
:1026B0008043936023686A7E23F0787343EA425331
:1026C00023602368AA7E23F4F81343EA02432360BD
:1026D000EB7E1BB1A36843F40043A360236843F07F
:1026E00001032360E3699A02FCD5E3695B02FCD530
:1026F000002001E06FF0120003B0F0BD6FF0150094
:10270000FAE700BF20520008003801402DE9F843E5
:1027100006460A794068336904685F68012A0D46F5
:1027200058D0931ED3F1000848EB03084FEA8828DD
:102730006979FFF7F5FE95F80690B9F1020F0346A7
:102740004BD0B9F1040F4CD0002A54D0033A012ADF
:1027500049D94FF48050B3F5805F4ED0B3F5405F58
:102760004DD0002B0CBF0123032399423BD141469E
:1027700002F0F2F9814536D1EB79C3B1012B40D19A
:10278000214B9C4213D0A3F574439C420FD003F518
:1027900080639C420BD003F580639C4207D003F515
:1027A00080639C4203D003F540539C421BD12368B5
:1027B00023F0010323602946304602F03AFA2368E9
:1027C00043F00103236095E8030087E8030000203D
:1027D000BDE8F8834FF4C068AAE73AB94FF08050DB
:1027E000B9E7002AB5D06FF08500F1E7033A012A76
:1027F000F9D90020AFE71046ADE70023B5E7022383
:10280000B3E7032BBCD0EEE70038014010B54FF022
:10281000E0230F499C691A6908689B690D4902F415
:10282000803234B993B903464AB90A681044C01AD1
:1028300010BD002B08BF03460AB9A342F5D90A68A8
:1028400002440A604FF0E0221269EEE70446F3E723
:1028500004040020000400200A4B102283F82320E7
:10286000094B4FF4FA521A60084B002018604FF0E1
:10287000E02341F63F725A6198611A6942F00702FB
:102880001A61704700ED00E00404002000040020FD
:1028900010B5FFF7BBFF104B1049D3E900420868A1
:1028A000001942F10002C3E900020D4A00230B6047
:1028B000D2E900414FF4FA53001BB0FBF3F043435D
:1028C0001B1941F10001C2E9003100F01DFFBDE814
:1028D0001040FEF751BD00BFC800002000040020DA
:1028E000C00000202DE9F041DFF8DC8099B1421CE6
:1028F0000BD14FF0E022136923F0010313614FF075
:102900007F43C8F80030BDE8F081D8F800600128A6
:1029100007DC00270BE0431CD8F80060F7D14FF428
:10292000036040F631039842A8BF1846471EEFF3F4
:102930001185102383F31288BFF36F8FFFF766FFB3
:10294000224C4FF0E0239969D4E90023801843F129
:102950000003C4E900031E4B00221A601D4B1A68D5
:10296000831A2ED44FF4FA5C0CFB073303F5F953AA
:102970001F33B3FBFCF7131A0CFB0733B3F5806F5F
:10298000154A38BF4FF48063934228BF13464FF077
:10299000E022C8F80030013B906953610023936145
:1029A0008142A1EB0003D4E9001238BF9B195B18E8
:1029B00042F10002C4E9003285F31188BFF36F8F42
:1029C000A1E74FF48063E2E704040020C800002080
:1029D00000040020C000002000DCFF0038B5EFF349
:1029E0001185102383F31288BFF36F8F084B1C6887
:1029F000084B1B68E41AFFF709FF85F31188BFF342
:102A00006F8F4FF4FA532044B0FBF3F038BD00BF92
:102A1000C8000020C000002038B5EFF31185102356
:102A200083F31288BFF36F8F044B1C68FFF7EEFE31
:102A300085F31188BFF36F8F204438BDC800002094
:102A4000224B9A68D96812F00C0205D00C2A15D1D5
:102A500001F00301012918D119681D48090755BF64
:102A6000D3F894101968C1F30321C1F3031150F88E
:102A7000210012B10C2A09D000207047042A22D06C
:102A8000082A144818BF002070470020DA6802F0B6
:102A90000302022A15D00F49032A08BF0846D96845
:102AA000DA68C2F306224243D868C0F34160C1F33A
:102AB0000211013001314000B2FBF1F2B2FBF0F043
:102AC00070470548EBE70448704700BF001002401C
:102AD0000C59000800127A000024F4001F4B421E1B
:102AE0009A4201D9012070471D4B1B6803F4C06353
:102AF000B3F5007F0FD11B4B98421AD81A4B98425E
:102B000027D81A4B984226D8194B984294BF0023D5
:102B10000123002011E0174B98420CD8A3F5F403D1
:102B2000A3F59053984214D8134B984213D8134BE3
:102B3000EBE70423EDE70023012011490A6822F0A6
:102B400007021A430A600A6802F007029342C9D1D9
:102B500070470323DDE70223DBE700BFFFB3C404B4
:102B6000007000400090D003006CDC020048E801D7
:102B70000024F40080BA8C01001BB700808D5B003C
:102B80000020024070B5054600B304783CB1104CFB
:102B9000104EB44205D30E4CB4420BD30024204651
:102BA00070BD204602F038F910B12368AB42F6D070
:102BB0001434EEE7204602F02FF928B121682846A8
:102BC000FEF75BF90028EAD01434E5E70446E6E7AF
:102BD000205200087453000838B5EFF31185102314
:102BE00083F31288BFF36F8F064B9C6802F027F9BE
:102BF00085F31188BFF36F8F2046BDE83840FEF79C
:102C00003BBD00BF0804002038B5094B53F82040F5
:102C1000013053F82050A54200D838BD636823B175
:102C2000204602F00FF90834F5E723689847FAE7E1
:102C30003C59000870B52A4B2A4C2B4D012286B016
:102C400003201A70FFF7E0FF00F0DEFD0420FFF71D
:102C5000DBFF2646AE4204F1300410D300F012FB35
:102C6000204C224EAC4226D300F020FBFEF710F998
:102C70001F4A137B23F00103137306B070BD54F891
:102C80000C3C059354F8103C049354F8143C039303
:102C900054F8183C029354F81C3C019354F8203C1F
:102CA000009354E90A2354E90C0100F01DF954F88B
:102CB000303C5E65CDE7D4E90A23B3F1FF3F08BF9E
:102CC000B2F1FF3F05D052EA0301206803D102F0C0
:102CD000ECF83034C6E73146183000F09BFCF8E7DA
:102CE000390400204C5600084C560008B54F000827
:102CF0005001002008B50348034A0021121A02F0CF
:102D0000B9F808BDC00000203C04002070B50023C5
:102D100086B00122CDE90423134E144D01930F22F6
:102D2000CDE902321249142303FB005506EBC0160D
:102D300004464FF4C07000FB04110E4B00954FF495
:102D4000A072304600F0D0F8737B0B4AEE6023F09F
:102D5000040373734FF4046304FB033313442C74B0
:102D60006B6006B070BD00BFD000002008040020DA
:102D7000800C00207D4E000840040020BFB50020DC
:102D8000FFF742FF2B4B83F308882B4D2B4E6B69CB
:102D90002B4F43F400736B610024F02385F822303D
:102DA000EC772C766C76AC7685F820406B6A43F431
:102DB000E0236B62FEF738FCFEF778FD4FF0FF333F
:102DC000AB62EB62FEF738FEFEF794FD1D4BB3607D
:102DD00040F201129A81C3E91844DC6602F01BF844
:102DE0000120FFF711FF0220174DFFF70DFF00F044
:102DF0007DFA164B75610593012315490094CDE9C1
:102E000003434FF480623B46CDE90144284600F07D
:102E10006BF86A7B064622F0040228466A7302F0C9
:102E200080F82046FFF772FF3A4631462846FEF703
:102E30001BFD00BF800C002000ED00E00804002016
:102E4000352C0008D0010020500100200B5B000849
:102E5000000E002038B50446EFF31185102383F3EC
:102E60001288BFF36F8F02F0A9F848B10022826781
:102E700002F057F829460848BDE8384000F0BEB9CE
:102E8000D4E902329A4218BF0133A36085F3118856
:102E9000BFF36F8F38BD00BF3A04002013B5EFF3C6
:102EA0001181102484F31288BFF36F8F846844B1BA
:102EB000013C846081F31188BFF36F8F002002B062
:102EC00010BD52EA030406D181F31188BFF36F8F5E
:102ED0006FF00F00F3E7CDE900230246014800F050
:102EE00061F9ECE73A0400202DE9F043073285B0A0
:102EF00022F007020E461F461099017300F1580395
:102F00007F32C0E916330446002322F03F02042139
:102F1000836041733F2A0F98A073C4E90633E373BB
:102F200006F14009A2F1400805D883F31188BFF3E8
:102F30006F8F084602DFB51829462046FEF7FCF9D8
:102F400007300E9B20F00700A066C4E91898029392
:102F50000D9B01932D1A0C9B00932A463B4631464C
:102F60002046FEF74FFC00236365044B9B6803B1CA
:102F7000DB6EE366284605B0BDE8F0830804002058
:102F800038B50D4D2B4653F8184F9C4200D004B96C
:102F9000EC68AB6838B95A7BD20604D1A26912B981
:102FA000DA897F2A05D89C4202D0204600F07AFABE
:102FB00023466B6138BD00BF0804002008B590F9B6
:102FC0000D20437B002A014604DA03F07F0343739C
:102FD00001F06DFF044B9868431A58425841BDE810
:102FE0000840FFF7CDBF00BF0804002070B490F97F
:102FF0000D30427B002B29DBD30627D183692BBB05
:10300000134962F07F0242730A4652F8184F944205
:1030100018BF2346CC6923B9C0E900242060C861E9
:103020000CE090F90E5093F90E60B5420AD0AE4212
:1030300008DD5A68C0E900321060586070BC00209A
:10304000FFF79EBF9C42E7D01B68E4E770BC704767
:10305000080400202DE9F041002A427B0E460CBFF7
:1030600010210821114204460FD141EA0203D2097E
:1030700018D1437308291BD00120FFF781FFBFF34C
:103080005F8F637B23F060036373274B9B68A342CE
:1030900043D1EFF30583002B3FD13046BDE8F0412B
:1030A000FEF700BB03F07F03437301F000FFE1E78D
:1030B000A36813B1204601F002FF04F1180001F0EB
:1030C000BAFFA56D04F15807AF4211D04FF00008C8
:1030D00075B1284601F0F3FE05F1180001F0ABFFD1
:1030E000C5F878802846FFF781FFA56DAF42EFD184
:1030F0000D4DAB689C42BFD1EFF30583002BBBD0D5
:103100000120FFF73DFF094BAB6040F201129A81AD
:103110000022C3E91822DA66B1E786F31188BFF30B
:103120006F8FBDE8F08100BF08040020D0010020AF
:1031300070B590F90D20437B002A014604DA03F0B4
:103140007F03437301F0B3FE4B7B154A63F07F03AB
:1031500010464B7350F8183FD469834208BF0023D0
:1031600023B9C1E900042160D1610CE091F90E504E
:1031700093F90E60B5420ED0AE420CDD5868C1E93D
:103180000030016059609068431A5842BDE87040B1
:103190005841FFF7F5BE9C42E3D01B68E0E700BF53
:1031A00008040020F8B5124B0C461146114A9868E5
:1031B0001060DDE90676EFF31182102282F31288A7
:1031C000BFF36F8F9D68284601F083FEB6F1FF3F85
:1031D00008BFB7F1FF3F06D007493A46334605F12D
:1031E000180000F017FA2046BDE8F840FEF75ABA7A
:1031F0000804002028040020B54F000849B9EFF367
:10320000058030B9054B5A699B689A4201D0FEF798
:1032100049BA81F31188BFF36F8F7047080400200B
:1032200010B5EFF31184102282F31288BFF36F8F71
:10323000427B510704D484F31188BFF36F8F10BD14
:1032400022F004024273FFF7D1FE21460248BDE896
:103250001040FFF7D3BF00BF3A040020034648B92F
:10326000EFF3058232B9064A51699268914201D062
:10327000FEF718BA83F31188BFF36F8F704700BF52
:1032800008040020EFF31181102383F31288BFF3A9
:103290006F8F054B9A68D37B013BD37381F3118801
:1032A000BFF36F8F704700BF0804002038B5EFF3FD
:1032B0001185102484F31288BFF36F8F0A4B9A682C
:1032C000D37B0133D3730020FFF75AFE85F31188B7
:1032D000BFF36F8FEFF3118084F31288BFF36F8F0A
:1032E000BDE83840FFF7BABF08040020024B03F1E5
:1032F0001802C3E90622704708040020F8B5EFF36E
:103300001185102383F31288BFF36F8F19498868E2
:10331000437B03F07F03437301F0C9FD8B685A7B45
:10332000084662F07F025A7350F8182FCC69824227
:1033300008BF002222B9C3E900042360CB610CE07E
:1033400093F90E6092F90E70BE420ED0B7420CDDBA
:103350005168C3E900210B6053600120FFF710FEA4
:103360002846BDE8F840FEF79DB9A242E3D01268B6
:10337000E0E700BF0804002050EA01032DE9F04116
:1033800005460E4603D1FFF7B9FF00202BE0831C52
:1033900071F1FF3329DB01F063FE2C18EFF3118884
:1033A000102383F31288BFF36F8F124F124BB8684C
:1033B0001860FFF703FEB86810492A4633461830F4
:1033C00000F028F9BA68537B43F01003537340466A
:1033D000FEF768F901F044FE201A63EB03030128AD
:1033E00073F10003D1DBBDE8F0816FF00104241A12
:1033F000D4E700BF0804002028040020B54F0008CF
:10340000B1F1FF3F08BFB0F1FF3F08B506D10A4B4D
:10341000986801F095FD4FF0FF3008BDFFF7ACFF55
:10342000C11709304FF00A024FF0000341F10001CB
:10343000FDF7DCFAF1E700BF08040020014B9868B3
:10344000704700BF08040020044BC01A044BC01092
:103450005843044B01221A54704700BF5002002009
:10346000ABAAAAAA3A040020C3897F2B12D80A4B20
:103470001B6863B1094B90F90E201B689A4209DB67
:10348000437BDB0606D1064BC31A18BF012303F0AA
:10349000010070470023FAE7300400202C040020CC
:1034A000D000002070B50E4B0E4C1E7C06EB460380
:1034B00004EBC3040546204601F0BDFD0A4B002283
:1034C00028469A55FFF7D0FF48B1084B08491A68BB
:1034D000013A2046D317BDE8704000F09BB870BD9C
:1034E00008040020500200203A040020300400208C
:1034F0004934000838B5EFF31185102383F312889F
:10350000BFF36F8F104B114A9C681068A04206D120
:10351000FFF7C8FF85F31188BFF36F8F38BD002117
:103520001B7C11600A4AD35C002BF3D02046FFF7C6
:103530009BFF0028EED0637BDB0602D12046FFF71D
:10354000F7FD2046E4E700BF08040020280400201F
:103550003A04002008B50648064A0749121A01F045
:103560008BFCBDE80840054A0549064801F084BCCB
:1035700000000020BA0000205C5B00080000000092
:103580005C5B000800000020034B1B680BB9FFF7D1
:1035900025BA0020704700BF3404002030B570B158
:1035A0000B4B5B6898420AD0036843B1D3E904210E
:1035B000D0E90445121941EB0501C3E90421D0E922
:1035C000003213605A600023C0E9003330BD00BFF1
:1035D0008000002010B50E4B1C689C4204D1FFF700
:1035E000D3FF6FF0004010BDFFF7CEFF002CF8D0E6
:1035F000D4E904321B1A62EBE072B3F1004F72F1AE
:103600000001EEDA002AACBF18460020EBE700BF4D
:1036100080000020B3F1FF3F08BFB2F1FF3FF8B5D3
:1036200004461D4616465ED08160EFF311871023D5
:1036300083F31288BFF36F8F013275F1FF3324DA01
:103640002E49D1E900206FF001039B1A4FF0FF32A1
:1036500062EB00009E1B60EB0500012E70F1000381
:1036600001DA01260020C4E90460254ED6F800C026
:103670007568B44508BF4FF0000CBCF1000F0DD1C8
:10368000C4E900652C6074601CE0FFF77DFF013623
:1036900045F10005361845EBE070E4E7DCE904206D
:1036A000D4E90431934271EB000E1DDAD21ADCF832
:1036B000043060EB0100CCE90420C4E900C31C60C5
:1036C000CCF804403368B34209D09C4207D10D4B7B
:1036D0001C6824B9FFF77EFF2146FFF703F987F343
:1036E0001188BFF36F8FF8BD9B1A61EB0001AC45E9
:1036F000C4E90431C4D0DCF800C0BEE76802002091
:1037000080000020340400202DE9F84FEFF3118CE5
:10371000102383F31288BFF36F8FDFF8B0A0DFF8B8
:10372000B0902C4FC9F80000DAF800000024504592
:1037300008BF00200025D7E90021D9F80030E04675
:1037400078B3D0E9046C4FEAE37EB3427EEB0C0B16
:1037500005DAF61A6CEB0E04C0E9046421E0B21835
:1037600041EBE671C0E90445C7E90021FFF716FF08
:1037700088F31188BFF36F8F83689847EFF3118840
:10378000102383F31288BFF36F8FD9F80030DAF873
:1037900000009B1B5045C446C9F80030CBD1D7E987
:1037A00000219A1841EBE3730024C7E90023C9F80C
:1037B0000040FFF70FFF2146FFF794F888F31188C8
:1037C000BFF36F8FBDE8F84FFFF794BE8000002075
:1037D000340400206802002010B5EFF31184102398
:1037E00083F31288BFF36F8FFFF7CEFE054A0346BF
:1037F000D2E90001181841EBE37184F31188BFF39B
:103800006F8F10BD68020020014800F042BB00BF6E
:10381000105B00082DE9F04F8DB043680293837868
:1038200015469A07804640F10D8100240E78002E3F
:1038300000F00A81252E0BD04B1C03930134029B10
:103840004146304698470028C0F2F6800399EDE7DC
:103850004E788B1C252E0393F0D00027B946BB462B
:10386000BBF11F0F38D8A6F12003102B0AD8DFE8D0
:1038700003F02A0909300909092109090928092D34
:1038800009091F00A6F13003092B33D92A2E37D19D
:103890001BF0400F55F8043B40F08280002BA7BF7F
:1038A0004BF0200B9946C3F100094BF0280B01E0C7
:1038B0004BF0010B039B13F8016B0393002ECFD148
:1038C00030E04BF0020B4BF0040BF3E74BF0080B2E
:1038D000F0E74BF0100BEDE7BBF17F0F19D8A6F125
:1038E0003003092BD2D81BF0400F03D00A2101FB73
:1038F0000737DFE70A2101FB09394BF0200BD9E735
:103900002E2E06D11BF0400F40F09E804BF0400B56
:10391000D0E76C2E31D02BD8682E36D06A2E3CD012
:103920004C2E3AD0002F46F02003B8BF2BF04002B7
:10393000A3F16501BCBF1FFA82FB0027022901D950
:10394000612B2FD1073525F00705DFF8ACA208352C
:1039500007271BF0080F66D00AEB070B56465E459B
:1039600063D1A4EB0A0A06EB0A02A9EB07096FE18F
:10397000742E9FD07A2E9DD0D4E71BF0800F18BFF5
:103980004BF4007B4BF0800B94E71BF4807F18BF57
:103990004BF4007B4BF4807B8CE74BF4207B89E776
:1039A0001F4687E7A6F16301122900F2F080DFE8E5
:1039B00011F013004F00EE00EE00EE00EE004F009D
:1039C000EE00EE00EE00EE00EE00FE00E900EE007C
:1039D000EE001B00EE00AF0055F8043B8DF81830E8
:1039E00001270DF1180AB4E755F804AB834BBAF17F
:1039F000000F08BF9A461BF0400F14BF39464FF026
:103A0000FF31504601F030FB0746A2E7029B4146DA
:103A10002020984700280FDB013EB742F6D34C44E4
:103A2000A41BB14698E74E46F7E716F8010B029B38
:103A300041469847002892DA98F8023043F0040390
:103A400088F802304FF0FF3420460DB0BDE8F08F0B
:103A50001BF0800F34D01BF4007F2CD0073525F0ED
:103A60000705AA4669685AF8080B2BF010050029CB
:103A7000ADB237DA404261EB410145F480650DF1AA
:103A8000180B0A235A4601F0FBFAA0EB0B03019333
:103A90006B0662D5019B25F001019F4289B240F37C
:103AA000A180002E00F0998015F0100240F09C805B
:103AB000BB460D4623E0AA465AF8040BC117D4E7CB
:103AC000AA461BF4807F5AF8041B01D10846F5E78B
:103AD0001BF4007F15BF48B208B241F3C01141F397
:103AE000C031C2E750EA0103C9D11BF0400FC6D074
:103AF000002FC4D12BF0110295B2BB46019740F2C2
:103B0000064115EA01021CBF0BF1010B00222CE05B
:103B10002BF010021FFA82FB0A231BF0800C49D005
:103B20001BF400711DBF073525F00705AA46AA46FC
:103B30001ABF5AF8080B69685AF8040B50EA0105D5
:103B400045D12BF016051BF0400FADB242D0002F2F
:103B500040D12BF0170295B2019715F0100248D012
:103B6000019B002E42D103F1010B29075AD4EB0728
:103B700006D5D9456FDD0199A9EB0B035F18CB463C
:103B80005B4649E04BF0100B10237826C5E7782BF5
:103B900004D1C6F1780343F01003BEE7029B41460F
:103BA000252098470028FFF647AF023447E6082350
:103BB0000026B2E7AA461BF480715AF8040BBDD068
:103BC0001BF400711ABFC0B2614680B2B6E72BF099
:103BD000060295B20DF1180B54E725F01105ADB2B0
:103BE000BB468CE70D46B8E73B460D4603F1020B9A
:103BF000BBE7DDF804B082E7525B00084B5B0008CE
:103C0000CDE904324146029B202098470028FFF668
:103C100013AF049B059A01339945F1DCA4EB0B012A
:103C2000CC189B460AB3029B414630209847002897
:103C3000FFF602AF8EB901342744019B391B99422C
:103C400024DC1D465DBB019AA9EB0B0922445546B5
:103C50001446914435E0019F92E7023441463046D4
:103C6000029B98470028E7DAE6E640F206410D425B
:103C7000E2D015F0020F14BF2B20202015F4806F26
:103C800004F10104414618BF2D20E9E7029B41469B
:103C900030209847002804F10104CEDACCE606ABC8
:103CA000013D4146585D029B98470028CADAC3E6A9
:103CB000029B414620209847002804F10104FFF6AA
:103CC000BBAEA9EB0403002BF2DCBFE570478368B1
:103CD00000EBC101B3F5004F2CBF51F8220031F8C1
:103CE0001200704700EBC1018068B0F5004F2CBF97
:103CF00041F8223021F81230704708B50122FFF751
:103D0000E6FFD04008BD8368B3F5004F00EBC1016A
:103D100008D34B681AB143F001034B60704723F09E
:103D20000103FAE74B881AB143F001034B80704757
:103D300023F00103FAE753000122FFF7D3BFB0F5E8
:103D4000004F34BF04230823481C0833A0EBD300E2
:103D5000B0FA80F0C0F11F0070472DE9F0410D4628
:103D600086680446FFF7C9FFB6F5004F014601D348
:103D7000012832D03046FFF7E2FF04EB80010E69E4
:103D800096B9E368012282401343E36002220D6189
:103D90002B4629462046FFF7A5FF03222946204649
:103DA000BDE8F041FFF79EBF022231462046FFF7F3
:103DB0008EFF2946034607462046FFF793FF03225E
:103DC000334629462046FFF78DFF39462B462046CD
:103DD000FFF788FF02223146E1E7BDE8F081B2F546
:103DE000802F2CBF08230423D21A2DE9F0418C1810
:103DF000CD1D25F0070524F00704641B0026E40808
:103E000005602146AC60EE602046FFF798FF421D3A
:103E10009200013002F107074FEAD707A2F1100222
:103E20003146B8BF324605F1100001F08EF93A462E
:103E300031462846FFF77FFF334632463146284653
:103E4000FFF750FFA4EB0708284631460122FFF791
:103E50005AFF42463946FFF76EFF3B463246394627
:103E60002846FFF73FFF21462846FFF764FF4346F9
:103E7000324621462846FFF735FF214628460122D3
:103E8000FFF741FF3946BDE8F041FFF766BF00206C
:103E900070470FB407B504A951F8040B0191FDF761
:103EA000E7F903B05DF804EB04B07047704710B455
:103EB0004468C068A44610BC604710B40468C06879
:103EC000A44610BC604737B501230D4601AA102156
:103ED0000446FFF7ECFF58B99DF8043065F3C403BE
:103EE0008DF8043001AA012310212046FFF7E5FFD9
:103EF00003B030BD30B585B00D46012301AA1021B5
:103F00000446FFF7D4FFA8BB9DF8043065F34713C0
:103F10008DF8043001AA012310212046FFF7CDFFC0
:103F200040BB012302AA20212046FFF7C0FF08BBA7
:103F30009DF808202B0963F347128DF80820012310
:103F400002AA20212046FFF7B8FF98B9012303AA4F
:103F500012212046FFF7ABFF60B99DF80C30ED0948
:103F600065F3C7138DF80C3003AA012312212046F4
:103F7000FFF7A3FF05B030BD30B585B00C46012377
:103F800001AA10210546FFF792FF60B9012302AA9A
:103F900020212846FFF78BFF28B9012303AA12210D
:103FA0002846FFF784FF9DF80C309DF8082003F0A9
:103FB0008003520943EA02139DF8042043EA521396
:103FC000402B12D025DC112B14DC73B1013B102BDC
:103FD0000ED8DFE803F0093F414345470D0D0D0DB5
:103FE0000D0D0D0D0D4B49000123237005B030BDA3
:103FF0000023FAE7302BF8D007DC202BF5D0222B5A
:1040000008BF222318BF0023EFE7332B08BF332359
:10401000F8E7812BE9D00EDC552BE6D005DC442BEC
:10402000E3D0502B08BF5023ECE7602BDDD0662B8C
:1040300008BF6623E6E7912BD7D005DC822BD4D0CE
:10404000832B08BF8323DDE7A22BCED0B32B08BF81
:10405000B323D7E70223C8E70323C6E70423C4E753
:104060000523C2E70623C0E71123BEE71023BCE700
:1040700037B501230D4601AA20210446FFF717FF9B
:1040800058B99DF8043065F3C4038DF8043001AAD3
:10409000012320212046FFF710FF03B030BD13B5E8
:1040A00006230C466A461821FFF701FF9DF8012000
:1040B0009DF8003003EB022323809DF803209DF838
:1040C000023003EB022363809DF805209DF8043045
:1040D00003EB0223A38002B010BD13B506230C46E8
:1040E0006A462821FFF7E3FE9DF801209DF8003085
:1040F00003EB022323809DF803209DF8023003EB9D
:10410000022363809DF805209DF8043003EB022311
:10411000A38002B010BD012801D1EFF30583FEF7A3
:104120005BBD01460068FFF7F6BF08B5FDF700F973
:10413000BDE80840FDF720B900210120FFF7EBBFE3
:1041400061B662B680F31188BFF36F8F704772B6A5
:10415000002383F31188BFF36F8FBFF34F8F30BFFE
:1041600062B6BFF36F8F7047202809D9B0F1004FB6
:1041700008D80138B0FA80F0C0F11F004000704745
:10418000082070473E20704708B5FDF705FD002068
:1041900008BD08B5062201210020FDF749FD0022D7
:1041A00011460620FDF7F2FA012108460722FDF725
:1041B0003FFD002211460720FDF7E8FA0822012101
:1041C0000220FDF735FD002211460820FDF7DEFA3A
:1041D000092201210320FDF72BFD002211460920B1
:1041E000FDF7D4FA0A2201210420FDF721FD002267
:1041F00011460A20FDF7CAFA052108461722FDF7E5
:1042000017FD002211461720FDF7C0FA28220621CB
:104210000A20FDF70DFD002211462820FDF7B6FA11
:10422000002008BD0B68A3F14802182A82B012D8FA
:1042300003F1804303F5043348681A6802431A60A7
:104240000B6803F1804303F5043300201B680193DE
:10425000019B02B070476FF08500FAE70B68A3F18D
:104260004802182A9FBF03F1804303F504334968CD
:104270001A689DBF8A4300201A606FF0850070475E
:1042800010B50A680A2A26D840F29A73D340DB0791
:1042900021D54A68FF2A1CD0D3B203F1804303F52D
:1042A0000433C2F342341868C2F3042204FA02F25F
:1042B00020EA02021A604968CBB203F1804303F599
:1042C0000433C1F302421868C1F304218A40024357
:1042D0001A60002010BD6FF08500FBE70B68A3F1AA
:1042E0004802182A0AD803F1804303F504331A68F8
:1042F0004B68934314BF0120022070470A2B9FBFD5
:1043000040F29A70D84000F00100013088BF0120CF
:104310007047704743685B681B690B6000207047FB
:1043200043685B68586942400A4042405A61002035
:10433000704743685B6800209961704743685B6819
:1043400000209962704743685A6853694B40536133
:104350000020704710B503699868F8B1884219D1F8
:10436000DC6808689860A14200D1D860002008602D
:104370002AB19A680A60DA68996002B9D9600020A7
:1043800010E0814206D108682060D8688142EDD1F2
:10439000DC60EBE7044600680028F2D1002AE8D18F
:1043A0006FF0150010BDF0B54468012067688840C3
:1043B0001E46C2F3801327EA00078B403B4363602D
:1043C00090FAA0F7B7FA87F7D4F808C04FF0030EB9
:1043D0007F000EFA07F72CEA070C90FAA0F7B7FA5D
:1043E00087F7C2F3C1137F00BB4043EA0C03A3600D
:1043F00090FAA0F3B3FA83F3E7685B000EFA03F3D5
:1044000027EA030790FAA0F3B3FA83F302F030052A
:104410005B00C2F341229A403A43202DE26016D15C
:1044200007292BDC90FAA0F3226A2BB3B3FA83F3AB
:104430009B000F2101FA03F322EA030290FAA0F392
:10444000B3FA83F39B0006FA03F31343236290FA53
:10445000A0F3B3FA83F3226890FAA0F05B00032183
:10446000B0FA80F02D0901FA03F3400022EA0303B9
:1044700085401D432560F0BD2B46D9E7030A616ADC
:1044800093FAA3F282B1B2FA82F292000F2793FA62
:10449000A3F3B3FA83F307FA02F29B0021EA0202C4
:1044A0009E4016436662D2E72A46EEE713469A0319
:1044B00010B518D59C070FD55A072DD55022DC060C
:1044C0000CD542F4007213F4002F446818D06468CD
:1044D00001238B40A3610DE01022F0E79C06F2D58A
:1044E00042F48062EFE7DC0311D5DA0611D4C3F39E
:1044F00040139A0240680023FFF755FF002010BDCB
:104500005B03F7D5646801238B40A362F2E7302296
:10451000F0E74FF40072EDE76FF08500EFE770B55C
:104520000B46896821B101255E680C68854001B998
:1045300070BD8A682A4002D04B68304698471CB14B
:10454000236821461C46F2E72346FAE7F8B51F46E2
:10455000044640680E461546FFF725FF112F08D187
:10456000012303FA06F663685B682A054CBF9E6167
:104570009E620020F8BD43680169DB681A6822F07A
:1045800002021A601A6822F004021A601A6822F005
:1045900020021A601A6822F010021A601A6822F0CB
:1045A00040021A6091F841201AB91A6822F080027C
:1045B0001A607047C3681A6842F020021A601A68CD
:1045C00042F010021A601A6842F040021A601A683B
:1045D00042F080021A60704738B543680569DC68AC
:1045E000FFF7C9FF6368DB0142BF636823F0807394
:1045F000636095F841301BB9236823F00103236001
:104600002846BDE83840FEF725BC10B5046943686C
:10461000A26BDB688AB19A69920742BFE26B12789B
:104620009A629A69510742BFE26B596A1170E26B54
:104630000132E263A26B013AA2639A69D20613D4F3
:104640009A6991061BD49A69520602D49A69110696
:1046500014D5626B127A92070CD4FFF78CFF2046B8
:10466000BDE81040FEF7F6BBDA6942F01002DA61ED
:104670000122E2625A6842F480425A6010BDDA694F
:1046800042F02002DA615A6822F080725A60BDE876
:104690001040FFF7A1BF43680169DB689A69920582
:1046A00007D5DA6942F40072DA6101238B62FFF701
:1046B00093BF9A69D20506D5DA6942F48072DA614D
:1046C00001230B63F3E770472DE9F04F89B003AF87
:1046D00087E80E009DF81490BDF84CA029F0060361
:1046E00005468DF81F301646049B69682C69D1F881
:1046F0000C800399FF2B82BFFF2304939DF8143095
:10470000049895BF129A03F0FD034B460DF11F026A
:104710008DF8143013F00103C4E90E0133D14FF0CA
:10472000010BC4E90B33C4F824B067632846009337
:1047300039465346FDF7CCFC6868FFF73BFFD8F8D5
:10474000003043F00203C8F8003041F28832002301
:104750002046FEF7A3FB50B12846FFF73DFF4FF080
:10476000FF324FF0FF332046FEF798FB5846D4E95E
:104770000A21236B00293AD1A3BB8ABB00283DD074
:104780006FF0040044E00023C4E90933C4E90B33AB
:104790004FF4806367632846009339465346FDF71C
:1047A00097FC6868FFF706FFD8F8003043F0040371
:1047B000C8F8003041F2883200232046FEF76EFB35
:1047C00050B12846FFF708FF4FF0FF324FF0FF339C
:1047D0002046FEF763FB0120D4E90A21236BC9E7D9
:1047E000A362CDE702B1A16200232363C8E70021E1
:1047F00002B1A162E162002BF6D1C1E7049A039BEA
:10480000B61A1344CDE90336002E7FF46DAF30465F
:1048100009B0BDE8F08F036993F840201AB11B6A14
:104820000B60002070476FF00400704708B500224D
:1048300011461F20FCF7AAFF1F20FCF799FF00225A
:1048400020201146FCF7A2FFBDE808402020FCF71D
:104850008FBF2DE9F74398460B7A066943F00403AE
:1048600015460B7207460C460B460122AA420AD98E
:1048700006F110094FF0FF324FF0FF334846FEF7C4
:104880000DFB002626E0197A0CD2187D80EA010C77
:104890001CF0010F01D0400701D5890705D56FF045
:1048A00015061CE041F00201197201320C33D2B23C
:1048B000DCE7012D14BF04F114030023CDE9003817
:1048C000384694E80E00FFF7FFFE061E04DB013DAC
:1048D0000C34EDB2002DECD14846FEF7BBFA304661
:1048E00003B0BDE8F08342680369D26883F84210E0
:1048F00019B9136823F440131360704730B5036887
:1049000013600579046804EBC504A34202D36FF079
:10491000010030BD5C798C4201D00833F0E7002003
:10492000F7E74368C1F34B101B6801F01F01C05843
:1049300001238B40034214BF012300231370002086
:10494000704710B54368C1F34B101A6801F01F019E
:10495000845801238B4023438350002010BD10B5A1
:104960004368C1F34B14186801F01F01235801225A
:104970008A4023EA02032350002010BD38B50446C4
:104980000D46FFF7DEFF29462046FFF7E8FF00202F
:1049900038BD30B589B004468DF807100DF1070118
:1049A0001D4602910121CDE9052503910722002131
:1049B0000068A3888DF810108DF81C20826802A969
:1049C00094680222A04709B030BD30B589B00446D2
:1049D0008DF807100DF107011D4602910121CDE967
:1049E00005250391022200210068A3888DF810108C
:1049F0008DF81C2081688C6802A9A04709B030BDE1
:104A000020EAE0700A2180FB0101FEF7F9BC73B5D2
:104A1000456806690C46012301AA10212846FFF7C4
:104A200046FA00280FDB9DF8043064F347138DF835
:104A3000043001AA012310212846FFF73EFA00287E
:104A4000A4BF7483002002B070BD73B545680669C9
:104A50000C46012301AA20212846FFF728FA002846
:104A60000FDB9DF8043064F347138DF8043001AA7E
:104A7000012320212846FFF720FA0028A4BF348311
:104A8000002002B070BDF8B503290569144605D9A8
:104A90000A1F032A24D96FF085000FE00229AE68AF
:104AA0000DD003290FD0012914BFB5F90010B5F9B5
:104AB000021032462046FCF7A7FA0020F8BDB5F9EF
:104AC00004103246F6E7023D02F11807204635F998
:104AD000021F08343246FCF797FABC42F6D1ECE7E5
:104AE00006296E690CD007290ED0052914BFB5F927
:104AF0000C10B5F90E1032462046FCF7A5FADCE79B
:104B0000B5F910103246F7E70A3504F118072046C8
:104B100035F9021F08343246FCF796FABC42F6D14A
:104B2000CBE7072910B504460DD03C2907D003294F
:104B30000FD101694068FFF7D0FA002010BD01696C
:104B40004068FFF7CAFA216960680C31FFF7A7FADD
:104B5000F3E76FF08500F1E7B0F5805F07D0B0F1C3
:104B6000805F09D1002914BF01200220704700296D
:104B700014BF032004207047002914BF0220032023
:104B8000704743681B68D869DA69D107DA69C0F3EE
:104B9000C00048BF40F002009207DA6948BF40F009
:104BA00004005107DA6948BF40F02000D20542BF37
:104BB0004FF4807240F008001A62C10744BF082217
:104BC0001A62820744BF01221A62410744BF0222CF
:104BD0001A62820644BF04221A62704710B5436805
:104BE0001B681020DA691206FCD5EFF3118280F3FE
:104BF0001288BFF36F8FDC69240604D482F3118816
:104C0000BFF36F8FEEE7198582F31188BFF36F8FC3
:104C100010BD43681B68DA69100744BF08221A6296
:104C2000DA69920643BF9B8C0B7000204FF0FF3077
:104C300070472DE9F0410A790369D0F804805E6875
:104C4000012A04460D4611D0901E47424741BF023B
:104C500069794046FDF764FCAB79022B09D0042B3F
:104C600031D0131E18BF01231B0306E04FF4C067A9
:104C7000EEE7B2FA82F35B091B07EA79D8F8001075
:104C8000012A14BF4FF0000C4FF4407CAE421DD1FE
:104C90000A6822F0805222F4B0523A431A430A6062
:104CA0004B6823F4405303434B6063681A6893686E
:104CB00023F4407343EA0C03936031682046BDE857
:104CC000F041FDF749BC4FF48053D6E7D1F800E03E
:104CD0000EF4C06E77451FBFD1F800E02EF4C06E11
:104CE0004EEA07070F6061680F68796801F4405168
:104CF00088421FBF796821F440510143796061689F
:104D00000868016801F010218B421FBF016821F083
:104D100010210B430360636819688B6803F44073C8
:104D20009C451FBF8B6823F4407343EA0C038B60E0
:104D300063681B689968490405D5032A09D09A68F5
:104D400022F4804204E0032A03D19A6842F48042AC
:104D50009A6029683368994204D02046FDF7FCFB2D
:104D60002B683360BDE8F08110B5026952681268A3
:104D70000A6042681268126802F4C062B2F5806F7D
:104D800004460B4633D0A2F5C060424242411A713C
:104D900062681268526802F44052B2F5805F28D00F
:104DA000B2F5405F27D0002A0CBF012203225A71BE
:104DB000626812681068116800F0102001F4C06188
:104DC000FFF7CAFE987162681268926802F4407236
:104DD000A2F540714A424A41DA71616809688968FE
:104DE00011F4804F18BF0322DA71002010BD022297
:104DF000CDE70022DBE70222D9E738B5044648B107
:104E0000FDF70AFE502305465C43FDF705FE431BF4
:104E1000A342FAD338BD704740B1C368587810F048
:104E200001001EBF1878B0FA80F040097047EFF318
:104E30001183102383F31288BFF36F8FFEE708B549
:104E4000FFF7F5FF10B5D0E9003433B90020E26870
:104E5000537843F00103537010BD20469847002853
:104E6000F4D00028B8BF4042E368FF28A8BFFF2065
:104E70001870ECE700F069B900F059B908B51024D2
:104E8000EFF3118384F31288BFF36F8FFFF75FF99D
:104E9000F6E73AB18A4205D3C0E90212C0E9000040
:104EA000002070476FF015007047FEF7B9B9D0E9E0
:104EB000003213605A600023C0E90033704708B520
:104EC000FFF7F5FF437B23F0020343730023836066
:104ED00008BD38B504460D46FEF770F8637B43F015
:104EE00002036373E5B1A5602B689D4209D16B682D
:104EF000C4E900531C606C6012E06A689A42F6D004
:104F00001B68002BF3D094F90E2093F90E108A42FF
:104F1000F3D09142F1DD5A68C4E9003214605C605C
:104F200038BD10B5EFF31184102383F31288BFF35B
:104F30006F8FFEF75BF884F31188BFF36F8F10BD9E
:104F400010B50446183000F076F8EFF31181102305
:104F500083F31288BFF36F8F627B1A4004D081F312
:104F60001188BFF36F8F10BD2046BDE81040FEF7DB
:104F700071B838B50446EFF31185102383F3128816
:104F8000BFF36F8F437B13F0280F0BD183680BB1F6
:104F9000FFF795FF637B51B903F0FB036373204672
:104FA000FEF724F885F31188BFF36F8F38BD03F047
:104FB000EB03F3E701211838FFF7DBBF38B5EFF358
:104FC0001185102383F31288BFF36F8F0468A0420A
:104FD0000DD034B12046FFF772FF04F1180000F045
:104FE0002AF885F31188BFF36F8F204638BD00245F
:104FF000F7E7EFF31181102282F31288BFF36F8F6E
:10500000027BD2070CD581F31188BFF36F8F002389
:1050100083F31188BFF36F8F0423184602DF7047B4
:10502000437B1B0704D581F31188BFF36F8F704753
:105030000122FEF70FB810B5EFF31184102282F3AE
:105040001288BFF36F8F03683BB1FEF7A7FA002009
:1050500084F31188BFF36F8F10BD6FF01500F7E771
:1050600008B5FEF7B9FB08BD10B5024601448A42F7
:10507000134603D01C780132002CF8D1181A10BD49
:10508000F0B5C3F137070446FFB203F01F03104623
:10509000082BE6B233D0102B3ED06508A40844EAB2
:1050A000817445EAC1752D194FEA910242EB510214
:1050B000290941EA02716D1842EB1212290A41EAEC
:1050C00002616D1842EB1222290C41EA02416D186F
:1050D00042EB1242AD1842F10002EC0844EA42747D
:1050E000D10804EB8402A6EB4205EDB2092D0CD9E0
:1050F0000134A5F10A0541F10001EDB212E0E40826
:1051000044EA417406F00705C908303554EA010243
:1051100000F8015BBCD1F0BD240944EA017406F03B
:105120000F050909092D84BFED19EDB2EDE70A4419
:10513000914200F1FF3300D1704710B511F8014BD7
:1051400003F8014F9142F9D110BD02440346934246
:1051500000D1704703F8011BF9E70000014800681F
:085160007047000070020020FE
:0851680072BAFF7F0100000094
:10517000F512000800000000C51D000820520008BC
:10518000E112000800000000000000003452000896
:105190008D1F0008D45200088D1F0008E852000837
:1051A00093410008485200088D1F0008C0520008B3
:1051B0008D1F0008FC5200088D1F0008AC5200082B
:1051C0008D1F0008985200088D1F000884520008A7
:1051D0008D1F0008705200088D1F00085C520008E7
:1051E000C525000838530008C525000810530008DD
:1051F000C5250008245300083D1F000800000000DA
:105200005928000800000000C11B00080000000031
:10521000112300084C5300087D2400086053000847
:10522000135A000800000000140000209A0000201B
:1052300000000000AB5A0008E4570008E8570008D7
:10524000B000002000000000F55900080000000038
:10525000000000009800002090020020205A000862
:1052600080560008345700089C00002010030020DE
:105270002E5A000894560008345700089E0000205B
:10528000200300203C5A0008A856000834570008A4
:10529000A0000020300300204A5A0008BC56000835
:1052A00034570008A200002040030020585A00088C
:1052B000D056000834570008A400002050030020F6
:1052C000665A0008E456000834570008A60000207B
:1052D00060030020745A0008F8560008345700088C
:1052E000A800002070030020825A00080C57000814
:1052F00034570008AA00002080030020905A0008BC
:105300002057000834570008AC000020900300200C
:10531000CB5A000814580008F8580008B4000020C0
:105320004C000020DB5A000860580008F8580008BC
:10533000B60000205C000020EB5A0008AC580008C2
:10534000F8580008B80000206C0000209E5A0008A1
:1053500058570008A0570008AE000020A003002006
:105360008059000830000020F8570008B2000020E3
:04537000E403002032
:105374000000000039410008000000003941000825
:105384000000000039410008000000003941000815
:105394000000000039410008000000003941000805
:1053A400F3590008E51B0008F1590008E51B000843
:1053B400EF590008E51B0008ED590008E51B00083B
:1053C400EB590008E51B0008000000003941000803
:1053D40000000000394100080000000039410008C5
:1053E40000000000394100080000000039410008B5
:1053F40000000000394100080000000039410008A5
:105404000000000039410008000000003941000894
:105414000000000039410008000000003941000884
:105424000000000039410008E9590008E51B0008A4
:105434000000000039410008000000003941000864
:105444000000000039410008000000003941000854
:105454000000000039410008000000003941000844
:1054640000000000394100084C5300080B460008B6
:105474004C5300089746000800000000394100081A
:105484000000000039410008000000003941000814
:105494000000000039410008000000003941000804
:1054A40000000000394100080000000039410008F4
:1054B400E7590008E51B0008000000003941000816
:1054C40000000000394100080000000039410008D4
:1054D40000000000394100080000000039410008C4
:1054E40000000000394100080000000039410008B4
:1054F40000000000394100080000000039410008A4
:105504000000000039410008000000003941000893
:105514000000000039410008000000003941000883
:105524000000000039410008000000003941000873
:105534000000000039410008000000003941000863
:105544000000000039410008000000003941000853
:105554000000000039410008000000003941000843
:105564000000000039410008000000003941000833
:105574000000000039410008000000003941000823
:105584000000000039410008000000003941000813
:105594000000000039410008000000003941000803
:1055A40000000000394100080000000039410008F3
:1055B40000000000394100080000000039410008E3
:1055C40000000000394100080000000039410008D3
:1055D40000000000394100080000000039410008C3
:1055E40000000000394100080000000039410008B3
:1055F40000000000394100080000000039410008A3
:105604000000000039410008000000003941000892
:105614000000000039410008000000003941000882
:105624000000000039410008000000003941000872
:105634000000000039410008000000003941000862
:085644000000000039410008DC
:10564C0060000000010000000000002000000000CD
:10565C0000000B060200000068560008000000085D
:10566C00D85900082600020700000020E059000865
:10567C0024000B11FFFF0000002000480800000070
:10568C004C00000000010000FFFF0000001C00485F
:10569C00070000004C00000080000000FFFF00002D
:1056AC0000180048060000004C00000040000000FC
:1056BC00FFFF000000140048050000004C00000033
:1056CC0020000000FFFF0000001000480400000054
:1056DC004C00000010000000FFFF0000000C004810
:1056EC00030000004C00000008000000FFFF000059
:1056FC0000080048020000004C00000004000000FC
:10570C00FFFF000000040048010000004C000000F6
:10571C0002000000FFFF0000000000480000000035
:10572C004C00000001000000AD44000815430008C7
:10573C0021430008334300083D4300084743000859
:10574C00C91F000855430008000000002D48000840
:10575C00785700080100000000540040801A060031
:10576C0080570008A05700080000000058000000F7
:10577C000000200088570008010000009057000826
:10578C00020000000403000040020000240300009B
:10579C00400200009D2200081748000853480008EA
:1057AC00000000000000000000000000FC52000897
:1057BC00E8520008D4520008C0520008AC5200084D
:1057CC009852000884520008705200085C5200087D
:1057DC0000000000000000000010024023490008F7
:1057EC00434900085F4900087D49000889100008FA
:1057FC000000000000000000234B0008874A00084E
:10580C000000000000000000004800403452000876
:10581C0012070000385800080100000000000000CA
:10582C000000000000000000405800085800000074
:10583C0000000400485800080100000050580008FF
:10584C00020000000707000000020000270700000C
:10585C000000000000800040345200088007000067
:10586C008458000801000000000000000000000047
:10587C00000000008C5800085C00000001000000D3
:10588C0094580008010000009C5800080200000019
:10589C00E80C000000020000080D000000000000F1
:1058AC00004400403452000811070000D058000892
:1058BC0001000000000000000000000000000000DB
:1058CC00D85800085800000000000200E0580008FA
:1058DC0001000000E858000802000000A7060000C4
:1058EC0000020000C706000000000000134C000876
:1058FC00DD4B0008834B00080D270008694D00089C
:10590C00A0860100400D0300801A060000350C0033
:10591C0040420F0080841E0000093D0000127A00F6
:10592C000024F40000366E010048E801006CDC0233
:10593C00705100087051000800520008085200080D
:10594C00205200082052000800000F003B00770096
:10595C00EE00DC01B80300000A0032007700EE0014
:10596C00DC01B80301000200000008003D00DC026D
:10597C007A00F4004C534D39445331004661696C44
:10598C00656420746F2066696E64204C534D3944F5
:10599C005331206465766963650A00416363656C05
:1059AC003A20783D25662C20793D25662C207A3DC1
:1059BC0025660A004779726F3A20783D25662C20BF
:1059CC00793D25662C207A3D25660A00464C4153CC
:1059DC00485F30005352414D5F30000A0605050404
:1059EC00010301020101010001696E746572727597
:1059FC0070742D636F6E74726F6C6C6572403430A2
:105A0C0030313034303000726363403430303231F6
:105A1C00303030006770696F40343830303230309D
:105A2C0030006770696F403438303031633030008B
:105A3C006770696F403438303031383030006770FF
:105A4C00696F403438303031343030006770696FF2
:105A5C00403438303031303030006770696F40344A
:105A6C0038303030633030006770696F4034383014
:105A7C003030383030006770696F40343830303037
:105A8C00343030006770696F40343830303030302B
:105A9C00300069326340343030303534303000728D
:105AAC00657365742D636F6E74726F6C6C657200C8
:105ABC0000EA02EAEAEA03EAEAEAEAEAEAEA017353
